{
  "_format": "hh-sol-artifact-1",
  "contractName": "Splitwise",
  "sourceName": "contracts/mycontract.sol",
  "abi": [
    {
      "inputs": [
        {
          "internalType": "address",
          "name": "creditor",
          "type": "address"
        },
        {
          "internalType": "uint32",
          "name": "amount",
          "type": "uint32"
        },
        {
          "internalType": "bool",
          "name": "res",
          "type": "bool"
        }
      ],
      "name": "add_IOU",
      "outputs": [],
      "stateMutability": "nonpayable",
      "type": "function"
    },
    {
      "inputs": [
        {
          "internalType": "address",
          "name": "debtor",
          "type": "address"
        },
        {
          "internalType": "address",
          "name": "creditor",
          "type": "address"
        },
        {
          "internalType": "uint32",
          "name": "amount",
          "type": "uint32"
        },
        {
          "internalType": "bool",
          "name": "res",
          "type": "bool"
        }
      ],
      "name": "addtolistIOU",
      "outputs": [],
      "stateMutability": "nonpayable",
      "type": "function"
    },
    {
      "inputs": [],
      "name": "getlistIOU",
      "outputs": [
        {
          "components": [
            {
              "internalType": "address",
              "name": "debtor",
              "type": "address"
            },
            {
              "internalType": "address",
              "name": "creditor",
              "type": "address"
            },
            {
              "internalType": "uint32",
              "name": "amount",
              "type": "uint32"
            }
          ],
          "internalType": "struct Splitwise.IOU[]",
          "name": "ret",
          "type": "tuple[]"
        }
      ],
      "stateMutability": "view",
      "type": "function"
    },
    {
      "inputs": [
        {
          "internalType": "address",
          "name": "debtor",
          "type": "address"
        },
        {
          "internalType": "address",
          "name": "creditor",
          "type": "address"
        }
      ],
      "name": "lookup",
      "outputs": [
        {
          "internalType": "uint32",
          "name": "ret",
          "type": "uint32"
        }
      ],
      "stateMutability": "view",
      "type": "function"
    }
  ],
  "bytecode": "0x608060405234801561001057600080fd5b50610f16806100206000396000f3fe608060405234801561001057600080fd5b506004361061004c5760003560e01c80631ac87a74146100515780632a80c8e01461006d578063713584a614610089578063a051a39a146100b9575b600080fd5b61006b60048036038101906100669190610aa8565b6100d7565b005b61008760048036038101906100829190610b0f565b61051d565b005b6100a3600480360381019061009e9190610b62565b61080a565b6040516100b09190610bb1565b60405180910390f35b6100c16108a0565b6040516100ce9190610cdb565b60405180910390f35b600060405180606001604052808673ffffffffffffffffffffffffffffffffffffffff1681526020018573ffffffffffffffffffffffffffffffffffffffff1681526020018463ffffffff16815250905060006001805490500361021e57600181908060018154018082558091505060019003906000526020600020906002020160009091909190915060008201518160000160006101000a81548173ffffffffffffffffffffffffffffffffffffffff021916908373ffffffffffffffffffffffffffffffffffffffff16021790555060208201518160010160006101000a81548173ffffffffffffffffffffffffffffffffffffffff021916908373ffffffffffffffffffffffffffffffffffffffff16021790555060408201518160010160146101000a81548163ffffffff021916908363ffffffff160217905550505050610517565b60005b6001805490508163ffffffff161015610431578573ffffffffffffffffffffffffffffffffffffffff1660018263ffffffff168154811061026557610264610cfd565b5b906000526020600020906002020160000160009054906101000a900473ffffffffffffffffffffffffffffffffffffffff1673ffffffffffffffffffffffffffffffffffffffff1614801561033057508473ffffffffffffffffffffffffffffffffffffffff1660018263ffffffff16815481106102e6576102e5610cfd565b5b906000526020600020906002020160010160009054906101000a900473ffffffffffffffffffffffffffffffffffffffff1673ffffffffffffffffffffffffffffffffffffffff16145b1561041e5760011515831515036103ae578360018263ffffffff168154811061035c5761035b610cfd565b5b906000526020600020906002020160010160148282829054906101000a900463ffffffff1661038b9190610d5b565b92506101000a81548163ffffffff021916908363ffffffff160217905550610417565b8360018263ffffffff16815481106103c9576103c8610cfd565b5b906000526020600020906002020160010160148282829054906101000a900463ffffffff166103f89190610d93565b92506101000a81548163ffffffff021916908363ffffffff1602179055505b5050610517565b808061042990610dcb565b915050610221565b50600181908060018154018082558091505060019003906000526020600020906002020160009091909190915060008201518160000160006101000a81548173ffffffffffffffffffffffffffffffffffffffff021916908373ffffffffffffffffffffffffffffffffffffffff16021790555060208201518160010160006101000a81548173ffffffffffffffffffffffffffffffffffffffff021916908373ffffffffffffffffffffffffffffffffffffffff16021790555060408201518160010160146101000a81548163ffffffff021916908363ffffffff1602179055505050505b50505050565b8273ffffffffffffffffffffffffffffffffffffffff163373ffffffffffffffffffffffffffffffffffffffff160361058b576040517f08c379a000000000000000000000000000000000000000000000000000000000815260040161058290610e54565b60405180910390fd5b600115158115150361066057816000803373ffffffffffffffffffffffffffffffffffffffff1673ffffffffffffffffffffffffffffffffffffffff16815260200190815260200160002060008573ffffffffffffffffffffffffffffffffffffffff1673ffffffffffffffffffffffffffffffffffffffff16815260200190815260200160002060008282829054906101000a900463ffffffff166106319190610d5b565b92506101000a81548163ffffffff021916908363ffffffff16021790555061065b338484846100d7565b610805565b6000826000803373ffffffffffffffffffffffffffffffffffffffff1673ffffffffffffffffffffffffffffffffffffffff16815260200190815260200160002060008673ffffffffffffffffffffffffffffffffffffffff1673ffffffffffffffffffffffffffffffffffffffff16815260200190815260200160002060009054906101000a900463ffffffff166106f99190610d93565b63ffffffff161015610740576040517f08c379a000000000000000000000000000000000000000000000000000000000815260040161073790610ec0565b60405180910390fd5b816000803373ffffffffffffffffffffffffffffffffffffffff1673ffffffffffffffffffffffffffffffffffffffff16815260200190815260200160002060008573ffffffffffffffffffffffffffffffffffffffff1673ffffffffffffffffffffffffffffffffffffffff16815260200190815260200160002060008282829054906101000a900463ffffffff166107da9190610d93565b92506101000a81548163ffffffff021916908363ffffffff160217905550610804338484846100d7565b5b505050565b60008060008473ffffffffffffffffffffffffffffffffffffffff1673ffffffffffffffffffffffffffffffffffffffff16815260200190815260200160002060008373ffffffffffffffffffffffffffffffffffffffff1673ffffffffffffffffffffffffffffffffffffffff16815260200190815260200160002060009054906101000a900463ffffffff16905092915050565b60606001805480602002602001604051908101604052809291908181526020016000905b828210156109c857838290600052602060002090600202016040518060600160405290816000820160009054906101000a900473ffffffffffffffffffffffffffffffffffffffff1673ffffffffffffffffffffffffffffffffffffffff1673ffffffffffffffffffffffffffffffffffffffff1681526020016001820160009054906101000a900473ffffffffffffffffffffffffffffffffffffffff1673ffffffffffffffffffffffffffffffffffffffff1673ffffffffffffffffffffffffffffffffffffffff1681526020016001820160149054906101000a900463ffffffff1663ffffffff1663ffffffff1681525050815260200190600101906108c4565b50505050905090565b600080fd5b600073ffffffffffffffffffffffffffffffffffffffff82169050919050565b6000610a01826109d6565b9050919050565b610a11816109f6565b8114610a1c57600080fd5b50565b600081359050610a2e81610a08565b92915050565b600063ffffffff82169050919050565b610a4d81610a34565b8114610a5857600080fd5b50565b600081359050610a6a81610a44565b92915050565b60008115159050919050565b610a8581610a70565b8114610a9057600080fd5b50565b600081359050610aa281610a7c565b92915050565b60008060008060808587031215610ac257610ac16109d1565b5b6000610ad087828801610a1f565b9450506020610ae187828801610a1f565b9350506040610af287828801610a5b565b9250506060610b0387828801610a93565b91505092959194509250565b600080600060608486031215610b2857610b276109d1565b5b6000610b3686828701610a1f565b9350506020610b4786828701610a5b565b9250506040610b5886828701610a93565b9150509250925092565b60008060408385031215610b7957610b786109d1565b5b6000610b8785828601610a1f565b9250506020610b9885828601610a1f565b9150509250929050565b610bab81610a34565b82525050565b6000602082019050610bc66000830184610ba2565b92915050565b600081519050919050565b600082825260208201905092915050565b6000819050602082019050919050565b610c01816109f6565b82525050565b610c1081610a34565b82525050565b606082016000820151610c2c6000850182610bf8565b506020820151610c3f6020850182610bf8565b506040820151610c526040850182610c07565b50505050565b6000610c648383610c16565b60608301905092915050565b6000602082019050919050565b6000610c8882610bcc565b610c928185610bd7565b9350610c9d83610be8565b8060005b83811015610cce578151610cb58882610c58565b9750610cc083610c70565b925050600181019050610ca1565b5085935050505092915050565b60006020820190508181036000830152610cf58184610c7d565b905092915050565b7f4e487b7100000000000000000000000000000000000000000000000000000000600052603260045260246000fd5b7f4e487b7100000000000000000000000000000000000000000000000000000000600052601160045260246000fd5b6000610d6682610a34565b9150610d7183610a34565b9250828201905063ffffffff811115610d8d57610d8c610d2c565b5b92915050565b6000610d9e82610a34565b9150610da983610a34565b9250828203905063ffffffff811115610dc557610dc4610d2c565b5b92915050565b6000610dd682610a34565b915063ffffffff8203610dec57610deb610d2c565b5b600182019050919050565b600082825260208201905092915050565b7f43616e6e6f74206f776520746f20796f757273656c6600000000000000000000600082015250565b6000610e3e601683610df7565b9150610e4982610e08565b602082019050919050565b60006020820190508181036000830152610e6d81610e31565b9050919050565b7f44656274206d75737420706f7369746976650000000000000000000000000000600082015250565b6000610eaa601283610df7565b9150610eb582610e74565b602082019050919050565b60006020820190508181036000830152610ed981610e9d565b905091905056fea2646970667358221220e8adf5a332aaf7e4ba8ed8b83fa8e7129114abd73ff09a8a5dad2c18bbaea12164736f6c63430008110033",
  "linkReferences": {},
  "deployedLinkReferences": {}
}